:1000000016EF03F00000000000EF00F00000000019
:0A0010000000000000000000F3D71C
:10001C000134083609360450085E0550D8A0053C5A
:10002C00095E003601360F0E0C6E013408360936A7
:10003C00045000A006D0085E0550D8A0053C095E0F
:10004C0005D008260550D8B0053C092600360136E7
:10005C000C2EEBD700B006D0045008260550D8B0B3
:08006C00053C0926000012000A
:100074000450000A08E10550000A05E1FF0E006E75
:100084007F0E016E57D00D6A096A086A015000108C
:10009400D8B4000C015005180A6E0ABE0D1E0B6A76
:1000A40005AE05D0041E051E042AD8B4052A01AEE7
:1000B40005D0001E011E002AD8B4012A01500510E3
:1000C4000A6E0ABE10D0A8DF0BB020D00DAE000C13
:1000D400001E011E002AD8B4012A081E091E082A7F
:1000E400D8B4092A000C05AE0DD001BE07D00150CA
:1000F400096E0050086E016A006AE8D7016A006A56
:10010400002A000C011E001E0B2ADDD7082AD8B4D1
:10011400092A0450085CD8A4D9D70550095CD8A48E
:10012400D5D7096A086A002AD8B4012A01AECED705
:060134000000FF0C1200A8
:0E013A00ACB202D00000FCD73AC0ADFF1200FC
:100148003BC001F0010E006E015004E00036009043
:10015800FF0FFBD700C089FF51D08C808C828C8424
:100168008C868C888C8A8C9C8C9E64D08C908C829B
:100178008C848C968C988C9A8C9C8C9E5BD08C8072
:100188008C828C948C868C888C9A8C8C8C9E52D089
:100198008C808C828C848C868C988C9A8C8C8C9E8F
:1001A80049D08C908C828C848C968C988C8A8C8C80
:1001B8008C9E40D08C808C928C848C868C988C8A77
:1001C8008C8C8C9E37D08C808C828C848C968C986E
:1001D8008C9A8C9C8C9E2ED08C808C828C848C8665
:1001E8008C888C8A8C8C8C9E25D08C808C828C847C
:1001F8008C868C988C8A8C8C8C9E1CD03A50000AE9
:10020800ACE03A50010AB2E03A50020AB8E03A507B
:10021800030ABEE03A50040AC4E03A50050ACAE0AC
:100228003A50070AD0E03A50080AD6E03A50090A8C
:06023800DCE0E3D7120038
:10023E00086A080E0C6E003408360450085ED8B0FA
:0E024E0002D00826D89000360C2EF5D71200EC
:10025C00020E0C6E490E0D6E0D2EFED70C2EFCD719
:06026C000000000012007A
:0602720000000000120074
:10027800E80E046E030E056E35C000F0000E016E28
:10028800F5DE00C038F0E80E0002F3CF00F00050B1
:10029800355C396E39C035F0640E046E39C000F033
:1002A800CADF00C037F0640E0002F3CF00F0005040
:1002B800395E39C035F00A0E046E39C000F0BBDF74
:1002C80000C036F00A0E0002F3CF00F00050395C8F
:1002D800006E00C035F000C03AF03B6A31DF030E13
:1002E8000C6E970E0D6E0D2EFED70C2EFCD700004F
:1002F800000036C03AF0010E3B6E22DF030E0C6E92
:10030800970E0D6E0D2EFED70C2EFCD700000000A8
:1003180037C03AF0020E3B6E13DF030E0C6E970ED9
:100328000D6E0D2EFED70C2EFCD70000000038C035
:100338003AF0030E3B6E04DF030E0C6E970E0D6E43
:0E0348000D2EFED70C2EFCD700000000120078
:10035600386A35C0E9FF36C0EAFFEECF37F03750CE
:10036600000A0DE037C03AF0E5DE382A3850352469
:10037600E96E000E3620EA6EEECF37F0F0D71200A7
:0A038600210E0D6E0D2EFED71200A1
:0E039000330E0D6E0D2EFED700000000120081
:10039E0030C001F0010E006E015004E000360090F6
:1003AE00FF0FFBD700C032F0001E2EC0E9FF2FC09A
:1003BE00EAFF0050EF16120EE9260050EF1647DF47
:1003CE003250EF12120EE95EDCDF3250EF14316E56
:1003DE003150000A000ED8A4010E316E38DF31C044
:0403EE0000F0120009
:1003F2000900F5CFE6FF0006FBE10106F9E1120074
:100402003A0E1C6E010E1D6E3A0E1E6E000E1F6E0F
:10041200FF0E226EFF0E236E000E246E000E256E5E
:10042200FF0E2A6EFF0E2B6E000E2C6E000E2D6E2E
:10043200FF0E266EFF0E276E000E286E000E296E2E
:10044200AC8A900EAB6E948E949C9EAA03D0AECFD3
:0604520000F0FBD71200D0
:100458002FAE0AD015C0E1FF16C0E2FF2D0EE66EE2
:100468002E1E2F1E2E4A2F2A2EC000F02FC001F05C
:1004780001320032019E00C030F0640E046EDBDEF3
:1004880000520DE0640E046E30C000F0D4DE15C0DA
:10049800E1FF16C0E2FF300E0024E66E06D015C05C
:1004A800E1FF16C0E2FF300EE66E010E1524316E34
:1004B800000E1620326E0A0E046E30C000F0BBDE4D
:1004C8000A0E046EB8DE08C000F0300E002631C0F7
:1004D800E1FF32C0E2FF00C0E6FF020E1524316ED4
:1004E800000E1620326E0A0E046E30C000F0A3DE35
:1004F80008C000F0300E002631C0E1FF32C0E2FF34
:1005080000C0E6FF15C035F016C036F020DF0D0E2E
:100518003A6E0FDE0A0E3A6E0CDE020E0B6E040EF9
:100528000C6EBA0E0D6E0D2EFED70C2EFCD70B2EB0
:10053800FAD700000A0E046E30C000F07CDE00C05E
:0605480035F096DE120002
:10054E0030C001F0010E006E015004E00036009044
:10055E00FF0FFBD700C034F0001C336E326A2EC082
:10056E00E9FF2FC0EAFF316A3150070820E333500C
:10057E00EF16120EE9263350EF1674DE3450EF12DA
:10058E0071DE120EE95E3450EF14006E0CE031C0D5
:10059E0001F0010E006E015004E000360090FF0FD6
:1005AE00FBD700503212E8DEE7DE312ADDD732C04B
:0405BE0000F0120037
:1005C20030C001F0010E006E015004E000360090D0
:1005D200FF0FFBD700C034F0001E00C033F02EC066
:1005E200E9FF2FC0EAFF0050EF16120EE926326A29
:1005F2003250070815E332C000F031C001F000505C
:1006020004E00132019EFF0FFBD73350EF1601A029
:1006120002D03450EF12BBDE3450EF12322AE8D748
:0A062200120EE95EAFDEAEDE12003C
:10062C00170E156E166A300E176E300E186E300ED1
:10063C00196E300E1A6E1B6A0F013C6B9684386B68
:10064C003B6B926A956A896AB886B06ACF0EAF6EB8
:10065C00AC84D1DE020E0B6E040E0C6EBA0E0D6E57
:10066C000D2EFED70C2EFCD70B2EFAD70000840EC5
:10067C002E6E0F0E2F6E020E306E8BDE840E2E6ED3
:10068C000F0E2F6E020E306ECC0E316E94DF840E78
:10069C002E6E0F0E2F6E020E306E440E316E8BDFEF
:1006AC001A0E0C6EF80E0D6E0D2EFED70C2EFCD7FE
:1006BC000000840E2E6E0F0E2F6E020E306E69DE51
:1006CC00840E2E6E0F0E2F6E020E306ECC0E316E0F
:1006DC0072DF840E2E6E0F0E2F6E020E306EBE0E5B
:1006EC00316E69DF840E2E6E0F0E2F6E020E306E81
:1006FC0028DF00C020F0000E216E840E2E6E0F0E2F
:10070C002F6E020E306E1DDF00C003F0026A205007
:10071C000224006E21500320016E00C020F001C0A5
:10072C0021F000C02EF001C02FF090DEA0D7FFD733
:020000040030CA
:0D000100231F3CFFBF81FF0FC00FE00F4029
:00000001FF
