:10000000FBEF04F00000000000EF00F00000000033
:0A0010000000000000000000F3D71C
:0E001C00026A016A006A086A036A000E120096
:10002A000134083609360450085E0550D8A0053C4C
:10003A00095E003601360F0E0C6E01340836093699
:10004A00045000A006D0085E0550D8A0053C095E01
:10005A0005D008260550D8B0053C092600360136D9
:10006A000C2EEBD700B006D0045008260550D8B0A5
:08007A00053C092600001200FC
:080082000AAE029E000E1200FE
:10008A000B840BAE50EF00F0010E036E026A016A98
:0A009A00006A0A360232FF0E12005F
:1000A400086A096A100E0C6E0134083609360450C9
:1000B400085E0550D8A0053C095ED8B007D00450AE
:1000C40008260550D8B0053C0926D89000360136DC
:0600D4000C2EEAD7120019
:1000DA000450000A08E10550000A05E1FF0E006E0F
:1000EA007F0E016E57D00D6A096A086A0150001026
:1000FA00D8B4000C015005180A6E0ABE0D1E0B6A10
:10010A0005AE05D0041E051E042AD8B4052A01AE80
:10011A0005D0001E011E002AD8B4012A015005107C
:10012A000A6E0ABE10D07CDF0BB020D00DAE000CD8
:10013A00001E011E002AD8B4012A081E091E082A18
:10014A00D8B4092A000C05AE0DD001BE07D0015063
:10015A00096E0050086E016A006AE8D7016A006AEF
:10016A00002A000C011E001E0B2ADDD7082AD8B46B
:10017A00092A0450085CD8A4D9D70550095CD8A428
:10018A00D5D7096A086A002AD8B4012A01AECED79F
:06019A000000FF0C120042
:1001A0000B800BAEDCEF00F0026A0AAEFF0E026EAF
:0C01B000016E006E0A360232FF0E1200D3
:1001BC000B820BAEE8EF00F0036802680168006880
:0801CC000A360232FF0E120098
:1001D400086A080E0C6E003408360450085ED8B065
:0E01E40002D00826D89000360C2EF5D7120057
:1001F2003F6A050E3F5C0AE23F503D24E16E000E6D
:100202003E20E26E200EE66E3F2AF3D73F503D2499
:10021200E16E000E3E20E26EE66A3F063F503D244C
:10022200406E000E3E20416E0A0E046E000E056EF8
:100232003BC000F03CC001F034DF08C000F009C050
:1002420001F0300E002640C0E1FF41C0E2FF00C0D5
:10025200E6FF0A0E046E000E056E3BC000F03CC0C5
:1002620001F01FDF00C03BF001C03CF0000E01189E
:1002720002E1000E001801E102D03F06CFD71200C2
:100282000C6A0E6A0250D8A45AEF01F001C002F0C3
:1002920000C001F0006A0E860250D8A45AEF01F0A5
:1002A20001C002F0016A0E960E880250D8B46CEFBB
:1002B20001F00E50035ED8A4D8A071EF01F0D890DF
:1002C20002BE76EF01F0003601360236032E61EFF0
:1002D20001F071EF01F0010E0C6E9FDE79EF01F07B
:1002E200020E0C6ED1DE79EF01F0040E0C6EC8DE48
:0202F2001200F8
:1002F4003CC001F0010E006E015004E00036009095
:10030400FF0FFBD700C089FF51D08C808C828C8476
:100314008C868C888C8A8C9C8C9E64D08C908C82ED
:100324008C848C968C988C9A8C9C8C9E5BD08C80C4
:100334008C828C948C868C888C9A8C8C8C9E52D0DB
:100344008C808C828C848C868C988C9A8C8C8C9EE1
:1003540049D08C908C828C848C968C988C8A8C8CD2
:100364008C9E40D08C808C928C848C868C988C8AC9
:100374008C8C8C9E37D08C808C828C848C968C98C0
:100384008C9A8C9C8C9E2ED08C808C828C848C86B7
:100394008C888C8A8C8C8C9E25D08C808C828C84CE
:1003A4008C868C988C8A8C8C8C9E1CD03B50000A3A
:1003B400ACE03B50010AB2E03B50020AB8E03B50CB
:1003C400030ABEE03B50040AC4E03B50050ACAE0FD
:1003D4003B50070AD0E03B50080AD6E03B50090ADC
:0603E400DCE0E3D712008B
:0803EA000B6A0B86FF0E1200E6
:0E03F200ACB202D00000FCD73BC0ADFF120041
:10040000F20E196E030E1A6E3B0E1B6E000E1C6E62
:10041000FF0E156EFF0E166E000E176E000E186E94
:10042000FF0E216EFF0E226E000E236E000E246E54
:10043000FF0E1D6EFF0E1E6E000E1F6E000E206E54
:10044000AC8A900EAB6E948E949C9EAA03D0AECFD5
:0604500000F0FBD71200D2
:1004560000C008F00150006E016A026A036A0B6A66
:100466000C6A016A026A036A960E036E0A6A00AE95
:1004760043EF02F0081E001E082AD8B4002A0A8E8E
:1004860000C001F008C000F0086A026AF7DE120038
:10049600086A096A000E07620364D0EF02F0025090
:1004A60006180A6E075003267E0ED8A061EF02F0EA
:1004B600035ED8B0D4EF02F065EF02F0035ED8A079
:1004C600D8EF02F0028E068E02C00EF001C00BF0CD
:1004D60000C00DF000500402F4CF0CF001500502EC
:1004E600F4CF00F0F3CF08F00402F3500C26F450DA
:1004F6000822000E00220D500502F3500C26F4507F
:100506000822000E002202500402F3500826F4507E
:10051600002202500502016A000E0122F350002655
:10052600F45001220D500602F3500826F450002222
:10053600026A000E012202220B500602F350002628
:10054600F4500122000E02220E500602F35001263C
:10055600F450022202BEB8EF02F008360036013629
:1005660002360306D8B4D8EF02F0CBEF02F0D880FB
:10057600800E08640030000E002201220222D8A05C
:10058600CBEF02F0023201320032034AD4EF02F01E
:100596000AAE029E000EDAEF02F0010E3CDDDAEF43
:1005A60002F0020E08DEDAEF02F0040E6BDD120036
:1005B600376A386A31C039F032C03AF0800E3218E4
:1005C600006E800E005C02E1000E315C0BE2010E53
:1005D600376E000E386E31500008396E32C03AF070
:1005E600000E3A5639C03BF03AC03CF033C03DF0FD
:1005F60034C03EF0FBDD060E356E000E366E000E84
:10060600006E3650005C02E13550000819E23550A4
:100616003324E16E36503420E26E010E355C006EF6
:10062600000E3658016E00503324E96E0150342016
:10063600EA6EEECFE6FF010E355E000E365ADFD7C4
:1006460033C0E1FF34C0E2FF200EE66E37503810AB
:100656001AE0356A366A35503324E96E365034204E
:10066600EA6EEE50200A03E1354A362AF4D7010E27
:10067600355E000E365A35503324E16E365034203E
:08068600E26E2D0EE66E12007B
:10068E00346A31C0E9FF32C0EAFFEECF33F03350A7
:10069E00000A0DE033C03BF0A5DE342A345031247D
:1006AE00E96E000E3220EA6EEECF33F0F0D7120074
:1006BE000900F5CFE6FF0006FBE10106F9E11200A5
:1006CE000450000A12E10550000A0FE10650000A1C
:1006DE000CE10750000A09E1FF0E006EFF0E016EDD
:1006EE007F0E026EFF0E036EA5D0086A096A0750D0
:1006FE00D8B412EF04F00350D8B416EF04F0025041
:10070E0006180A6E028E068E0E6A02C008F001C02E
:10071E000CF000C00DF004500D5E0550D8A0053C45
:10072E000C5E0650D8A0063C085E086A0C6A0D6A7C
:10073E00D8A0A9EF03F0D89002320132003208326D
:10074E00010E0E6E0750035ED8A0B6EF03F07E0EBC
:10075E000E240326D8B01BEF04F0BCEF03F07E0E80
:10076E000E240326D8A01FEF04F0180E0B6E0D36C4
:10077E000C3608360036013602360E360450005E50
:10078E000550D8A0053C015E0650D8A0063C025E7E
:10079E0006340E120EA0D7EF03F00D80E2EF03F039
:1007AE00045000260550D8B0053C01260650D8B09E
:1007BE00062802260D900B2EBEEF03F008EF04F074
:1007CE00D8900036013602360E360450005E0550C3
:1007DE00D8A0053C015E0650D8A0063C025E063449
:1007EE000E10010B0D26D8B00C2AD8B4082AD8A4A6
:1007FE0008EF04F008320C320D32032AD8B41BEF86
:10080E0004F00AAE089E0850026E0C50016E0D5098
:10081E00006E21EF04F0010EE1DD21EF04F0020E77
:10082E000EEC00F021EF04F0040EC1DC21EF04F019
:06083E00080E24DC12008C
:100844000B6A0350D8B468EF04F002500A6E028EAB
:100854008E0E035E03AE6CEF04F0036C080E035CB3
:10086400D8A047EF04F0036E013602C001F0026A1B
:10087400080E035CD8A047EF04F0036E0136016A4A
:100884000350D8A4D89051EF04F00350D8B451EFDA
:1008940004F0D89002320132032E4BEF04F00BBC6B
:1008A40001A05EEF04F0D8A05EEF04F0012AD8B4F2
:1008B400022A02BE7BEF04F00AAE80EF04F0021EAF
:1008C400011E012AD8B4022A80EF04F0026A016AE8
:1008D40080EF04F00B800BAE84EF04F0026A0AAEE2
:1008E40084EF04F0FF0E026E016E0A36023284EFCA
:1008F40004F0010E0C6E52DC86EF04F0000E0C6E58
:1009040086EF04F0FF0E0C6E0150006E0250016E73
:020914001200CF
:10091600E80E046E030E056E31C000F0000E016E87
:100926006DEC00F000C034F0E80E0002F3CF00F0EA
:100936000050315C356E35C031F0640E046E35C042
:1009460000F045DC00C033F0640E0002F3CF00F087
:100956000050355E35C031F00A0E046E35C000F029
:1009660036DC00C032F00A0E0002F3CF00F0005071
:10097600355C006E00C031F000C03BF03C6AB7DC6D
:10098600030E0C6E970E0D6E0D2EFED70C2EFCD799
:100996000000000032C03BF0010E3C6EA8DC030EE6
:1009A6000C6E970E0D6E0D2EFED70C2EFCD700008A
:1009B600000033C03BF0020E3C6E99DC030E0C6E59
:1009C600970E0D6E0D2EFED70C2EFCD700000000E4
:1009D60034C03BF0030E3C6E8ADC030E0C6E970EA1
:1009E6000D6E0D2EFED70C2EFCD700000000120057
:1009F600296A2A6A2B6A2C6A2D6A2E6A2F6A306A3D
:100A06000F01386B396B3A6B3B6B926A010E936E32
:100A1600956A896A8A6A296A2A6AB886B06ACF0E8E
:100A2600AF6EAC84EADC85D08A822B6A2C6A294AAE
:100A36002A2A9BD0030E0C6E970E0D6E0D2EFED736
:100A46000C2EFCD7000000008A92294A2A2A8DD053
:100A560081A00CD081A008D02B4A2C2A060E0D6E40
:100A66000D2EFED70000F6D7294A2A2A7ED02BC0A3
:100A760000F02CC001F0ECDC000E046E000E056EDA
:100A8600200E066E820E076E03DDAE0E046E470E56
:100A9600056E6B0E066E840E076E16DE00C02DF018
:100AA60001C02EF002C02FF003C030F0030E0C6E12
:100AB600970E0D6E0D2EFED70C2EFCD700000000F3
:100AC6002DC000F02EC001F02FC002F030C003F0A0
:100AD600B6DE00C031F01CDF2DC000F02EC001F0E4
:100AE6002FC002F030C003F0AADE00C031F001C012
:100AF60032F0250E336E000E346E5ADD250E316E41
:100B0600000E326EC1DD0D0E3B6E70DC0A0E3B6EC2
:100B16006DDC020E0B6E040E0C6EBA0E0D6E0D2EF3
:100B2600FED70C2EFCD70B2EFAD70000296A2A6AAC
:100B36001CD0000E2A1802E1000E2918D8B474D76A
:100B4600000E2A1802E1010E2918D8B473D7000E38
:100B56002A1802E1020E2918D8B47AD7000E2A18EC
:0E0B660002E1030E2918D8B482D75DD7FFD75D
:020000040030CA
:0D000100231F3CFFBF81FF0FC00FE00F4029
:00000001FF
